{
  "contractName": "CoShoe",
  "abi": [
    {
      "inputs": [],
      "payable": false,
      "stateMutability": "nonpayable",
      "type": "constructor"
    },
    {
      "anonymous": false,
      "inputs": [
        {
          "indexed": false,
          "internalType": "address",
          "name": "_owner",
          "type": "address"
        },
        {
          "indexed": false,
          "internalType": "string",
          "name": "_name",
          "type": "string"
        },
        {
          "indexed": false,
          "internalType": "string",
          "name": "_image",
          "type": "string"
        },
        {
          "indexed": false,
          "internalType": "uint256",
          "name": "_shoesSold",
          "type": "uint256"
        }
      ],
      "name": "ShoePurchase",
      "type": "event"
    },
    {
      "constant": true,
      "inputs": [],
      "name": "minter",
      "outputs": [
        {
          "internalType": "address",
          "name": "",
          "type": "address"
        }
      ],
      "payable": false,
      "stateMutability": "view",
      "type": "function"
    },
    {
      "constant": false,
      "inputs": [
        {
          "internalType": "string",
          "name": "_name",
          "type": "string"
        },
        {
          "internalType": "string",
          "name": "_image",
          "type": "string"
        }
      ],
      "name": "buyShoe",
      "outputs": [
        {
          "internalType": "bool",
          "name": "",
          "type": "bool"
        }
      ],
      "payable": true,
      "stateMutability": "payable",
      "type": "function"
    },
    {
      "constant": true,
      "inputs": [],
      "name": "checkPurchase",
      "outputs": [
        {
          "internalType": "bool[]",
          "name": "",
          "type": "bool[]"
        }
      ],
      "payable": false,
      "stateMutability": "view",
      "type": "function"
    }
  ],
  "bytecode": "0x60806040526706f05b59d3b20000600255600060035534801561002157600080fd5b5033600160006101000a81548173ffffffffffffffffffffffffffffffffffffffff021916908373ffffffffffffffffffffffffffffffffffffffff16021790555060008090505b60648112156101a857600060405180608001604052803373ffffffffffffffffffffffffffffffffffffffff168152602001600015158152602001604051806020016040528060008152508152602001604051806020016040528060008152508152509080600181540180825580915050906001820390600052602060002090600302016000909192909190915060008201518160000160006101000a81548173ffffffffffffffffffffffffffffffffffffffff021916908373ffffffffffffffffffffffffffffffffffffffff16021790555060208201518160000160146101000a81548160ff021916908315150217905550604082015181600101908051906020019061017a9291906101ae565b5060608201518160020190805190602001906101979291906101ae565b505050508080600101915050610069565b50610253565b828054600181600116156101000203166002900490600052602060002090601f016020900481019282601f106101ef57805160ff191683800117855561021d565b8280016001018555821561021d579182015b8281111561021c578251825591602001919060010190610201565b5b50905061022a919061022e565b5090565b61025091905b8082111561024c576000816000905550600101610234565b5090565b90565b6109df806102626000396000f3fe6080604052600436106100345760003560e01c80630754617214610039578063540a2f4f14610090578063cd87f42c14610176575b600080fd5b34801561004557600080fd5b5061004e6101e2565b604051808273ffffffffffffffffffffffffffffffffffffffff1673ffffffffffffffffffffffffffffffffffffffff16815260200191505060405180910390f35b61015c600480360360408110156100a657600080fd5b81019080803590602001906401000000008111156100c357600080fd5b8201836020820111156100d557600080fd5b803590602001918460018302840111640100000000831117156100f757600080fd5b90919293919293908035906020019064010000000081111561011857600080fd5b82018360208201111561012a57600080fd5b8035906020019184600183028401116401000000008311171561014c57600080fd5b9091929391929390505050610208565b604051808215151515815260200191505060405180910390f35b34801561018257600080fd5b5061018b6104fe565b6040518080602001828103825283818151815260200191508051906020019060200280838360005b838110156101ce5780820151818401526020810190506101b3565b505050509050019250505060405180910390f35b600160009054906101000a900473ffffffffffffffffffffffffffffffffffffffff1681565b600060035460008054905011610286576040517f08c379a00000000000000000000000000000000000000000000000000000000081526004018080602001828103825260138152602001807f536f7272792c20616c6c20736f6c64206f75740000000000000000000000000081525060200191505060405180910390fd5b60025434146102fd576040517f08c379a000000000000000000000000000000000000000000000000000000000815260040180806020018281038252601f8152602001807f4e6f7420656e6f7567682077656920746f2070757263686173652073686f650081525060200191505060405180910390fd5b610313600160035461083d90919063ffffffff16565b600381905550600160006001600354038154811061032d57fe5b906000526020600020906003020160000160146101000a81548160ff0219169083151502179055503360006001600354038154811061036857fe5b906000526020600020906003020160000160006101000a81548173ffffffffffffffffffffffffffffffffffffffff021916908373ffffffffffffffffffffffffffffffffffffffff16021790555084846000600160035403815481106103cb57fe5b906000526020600020906003020160020191906103e99291906108c5565b5082826000600160035403815481106103fe57fe5b9060005260206000209060030201600101919061041c9291906108c5565b507f9d117c32fa2ebac6072d9dfc0469362a931b3a7a66f0ffefeb7054bdac9c4fb73386868686600354604051808773ffffffffffffffffffffffffffffffffffffffff1673ffffffffffffffffffffffffffffffffffffffff16815260200180602001806020018481526020018381038352888882818152602001925080828437600081840152601f19601f8201169050808301925050508381038252868682818152602001925080828437600081840152601f19601f8201169050808301925050509850505050505050505060405180910390a160019050949350505050565b60608060008054905060405190808252806020026020018201604052801561054057816020015b61052d610945565b8152602001906001900390816105255790505b5090506000805480602002602001604051908101604052809291908181526020016000905b8282101561074c57838290600052602060002090600302016040518060800160405290816000820160009054906101000a900473ffffffffffffffffffffffffffffffffffffffff1673ffffffffffffffffffffffffffffffffffffffff1673ffffffffffffffffffffffffffffffffffffffff1681526020016000820160149054906101000a900460ff16151515158152602001600182018054600181600116156101000203166002900480601f0160208091040260200160405190810160405280929190818152602001828054600181600116156101000203166002900480156106925780601f1061066757610100808354040283529160200191610692565b820191906000526020600020905b81548152906001019060200180831161067557829003601f168201915b50505050508152602001600282018054600181600116156101000203166002900480601f0160208091040260200160405190810160405280929190818152602001828054600181600116156101000203166002900480156107345780601f1061070957610100808354040283529160200191610734565b820191906000526020600020905b81548152906001019060200180831161071757829003601f168201915b50505050508152505081526020019060010190610565565b505050509050606081516040519080825280602002602001820160405280156107845781602001602082028038833980820191505090505b50905060008090505b8251811015610834578281815181106107a257fe5b60200260200101516000015173ffffffffffffffffffffffffffffffffffffffff163373ffffffffffffffffffffffffffffffffffffffff1614156108065760018282815181106107ef57fe5b602002602001019015159081151581525050610827565b600082828151811061081457fe5b6020026020010190151590811515815250505b808060010191505061078d565b50809250505090565b6000808284019050838110156108bb576040517f08c379a000000000000000000000000000000000000000000000000000000000815260040180806020018281038252601b8152602001807f536166654d6174683a206164646974696f6e206f766572666c6f77000000000081525060200191505060405180910390fd5b8091505092915050565b828054600181600116156101000203166002900490600052602060002090601f016020900481019282601f1061090657803560ff1916838001178555610934565b82800160010185558215610934579182015b82811115610933578235825591602001919060010190610918565b5b5090506109419190610985565b5090565b6040518060800160405280600073ffffffffffffffffffffffffffffffffffffffff16815260200160001515815260200160608152602001606081525090565b6109a791905b808211156109a357600081600090555060010161098b565b5090565b9056fea265627a7a7231582015f2fb2d6a4bcc8e558d7522a0f5049f225a3dcb2a0461ba18102b9faa83f42764736f6c63430005100032",
  "source": "/*\n    Name: PRRMIG001, Miguel Fidel Pereira\n    Coding Week assignment\n*/\n\n// compiler directives\npragma solidity >= 0.5.0 <0.6.4;\n\n// imports\n\nimport '@openzeppelin/contracts/math/SafeMath.sol';\nimport '@openzeppelin/contracts/token/ERC721/IERC721.sol';\n// import '@openzeppelin/contracts/utils/ReentranceGuard.sol'; // may not need this\n\n/// @title A non-fungible token representation of Co's stylish custom shoes\n/// @author Miguel Pereira, PRRMIG001\ncontract CoShoe {\n    using SafeMath for uint256;\n\n    struct Shoe {\n        address owner;\n        bool sold;\n        string image;\n        string name;\n    }\n   Shoe[] private shoes;\n\n    address public minter; // define a minter for the contract\n    uint price = 0.5 * (1 * 10**18); // set the price in Wei\n    uint256 shoesSold = 0;\n\n    constructor() public {\n        minter = msg.sender;\n        // create 100 shoes and gift them to the minter\n        for (int i = 0; i < 100; i++){\n            shoes.push(Shoe(msg.sender, false, \"\", \"\"));\n        }\n    }\n\n    /// Allows a user to purchase their own custom shoe\n    /// @param _name        name to appear on shoe\n    /// @param _image       picture to appear on side of shoe\n    function buyShoe(string calldata _name, string calldata _image) external payable returns (bool) {\n        require (shoes.length > shoesSold, \"Sorry, all sold out\");\n        require (msg.value == price, \"Not enough wei to purchase shoe\");\n        // effects\n        shoesSold = shoesSold.add(1);\n        // assign the first available shoe to the new owner\n        shoes[shoesSold - 1].sold = true;\n        shoes[shoesSold - 1].owner = msg.sender;\n        shoes[shoesSold - 1].name = _name;\n        shoes[shoesSold - 1].image = _image;\n        emit ShoePurchase(msg.sender, _name, _image, shoesSold);\n        return true;\n    }\n\n    /// Returns an array showing which of the shoes in the shoes array belong to msg.sender\n    function checkPurchase() external view returns (bool[] memory) {\n        Shoe[] memory shoeArray = new Shoe[](shoes.length); // make a copy of this array to save gas. Must be dynamically sized.\n        shoeArray = shoes;\n        bool[] memory output = new bool[](shoeArray.length);\n        for (uint i = 0; i < shoeArray.length; i++){\n            if (msg.sender == shoeArray[i].owner){\n                output[i] = true;\n            }\n            else {\n                output[i] = false;\n            }\n        }\n        return output;\n    }\n\n    // create an event to fire off when a shoe is purchase\n    event ShoePurchase (\n        address _owner,\n        string _name,\n        string _image,\n        uint256 _shoesSold\n    );\n}",
  "sourcePath": "/home/user/Documents/CodingWeek/Part_1/contracts/CoShoe.sol",
  "compiler": {
    "name": "solc",
    "version": "0.5.16+commit.9c3226ce.Emscripten.clang"
  },
  "schemaVersion": "3.0.23",
  "updatedAt": "2020-03-08T15:35:22.373Z",
  "devdoc": {
    "author": "Miguel Pereira, PRRMIG001",
    "methods": {
      "buyShoe(string,string)": {
        "params": {
          "_image": "picture to appear on side of shoe",
          "_name": "name to appear on shoe"
        }
      }
    },
    "title": "A non-fungible token representation of Co's stylish custom shoes"
  },
  "userdoc": {
    "methods": {
      "buyShoe(string,string)": {
        "notice": "Allows a user to purchase their own custom shoe"
      },
      "checkPurchase()": {
        "notice": "Returns an array showing which of the shoes in the shoes array belong to msg.sender"
      }
    }
  }
}